{
  "_format": "hh-sol-artifact-1",
  "contractName": "WavePortal",
  "sourceName": "contracts/WavePortal.sol",
  "abi": [
    {
      "inputs": [],
      "stateMutability": "payable",
      "type": "constructor"
    },
    {
      "anonymous": false,
      "inputs": [
        {
          "indexed": true,
          "internalType": "address",
          "name": "from",
          "type": "address"
        },
        {
          "indexed": false,
          "internalType": "string",
          "name": "message",
          "type": "string"
        },
        {
          "indexed": false,
          "internalType": "uint256",
          "name": "timestamp",
          "type": "uint256"
        }
      ],
      "name": "NewWave",
      "type": "event"
    },
    {
      "inputs": [],
      "name": "canSpam",
      "outputs": [
        {
          "internalType": "bool",
          "name": "",
          "type": "bool"
        }
      ],
      "stateMutability": "view",
      "type": "function"
    },
    {
      "inputs": [],
      "name": "getBalance",
      "outputs": [
        {
          "components": [
            {
              "internalType": "uint256",
              "name": "balance",
              "type": "uint256"
            },
            {
              "internalType": "uint256",
              "name": "contract_balance",
              "type": "uint256"
            }
          ],
          "internalType": "struct WavePortal.Balance",
          "name": "",
          "type": "tuple"
        }
      ],
      "stateMutability": "view",
      "type": "function"
    },
    {
      "inputs": [],
      "name": "getTotalWaves",
      "outputs": [
        {
          "internalType": "uint256",
          "name": "",
          "type": "uint256"
        }
      ],
      "stateMutability": "view",
      "type": "function"
    },
    {
      "inputs": [],
      "name": "getWaves",
      "outputs": [
        {
          "components": [
            {
              "internalType": "address",
              "name": "waver",
              "type": "address"
            },
            {
              "internalType": "string",
              "name": "message",
              "type": "string"
            },
            {
              "internalType": "uint256",
              "name": "timestamp",
              "type": "uint256"
            },
            {
              "internalType": "uint256",
              "name": "won",
              "type": "uint256"
            }
          ],
          "internalType": "struct WavePortal.Wave[]",
          "name": "",
          "type": "tuple[]"
        }
      ],
      "stateMutability": "view",
      "type": "function"
    },
    {
      "inputs": [
        {
          "internalType": "address",
          "name": "",
          "type": "address"
        }
      ],
      "name": "lastWavedAt",
      "outputs": [
        {
          "internalType": "uint256",
          "name": "",
          "type": "uint256"
        }
      ],
      "stateMutability": "view",
      "type": "function"
    },
    {
      "inputs": [
        {
          "internalType": "string",
          "name": "message",
          "type": "string"
        }
      ],
      "name": "wave",
      "outputs": [],
      "stateMutability": "payable",
      "type": "function"
    }
  ],
  "bytecode": "0x60806040526200004f6040518060400160405280601081526020017f536d61727420636f6e7472616374202100000000000000000000000000000000815250620000b860201b620007101760201c565b33600260006101000a81548173ffffffffffffffffffffffffffffffffffffffff021916908373ffffffffffffffffffffffffffffffffffffffff16021790555060644442620000a09190620001bd565b620000ac919062000227565b6003819055506200031d565b6200015881604051602401620000cf9190620002f9565b6040516020818303038152906040527f41304fac000000000000000000000000000000000000000000000000000000007bffffffffffffffffffffffffffffffffffffffffffffffffffffffff19166020820180517bffffffffffffffffffffffffffffffffffffffffffffffffffffffff83818316178352505050506200015b60201b60201c565b50565b60008151905060006a636f6e736f6c652e6c6f679050602083016000808483855afa5050505050565b6000819050919050565b7f4e487b7100000000000000000000000000000000000000000000000000000000600052601160045260246000fd5b6000620001ca8262000184565b9150620001d78362000184565b9250828201905080821115620001f257620001f16200018e565b5b92915050565b7f4e487b7100000000000000000000000000000000000000000000000000000000600052601260045260246000fd5b6000620002348262000184565b9150620002418362000184565b925082620002545762000253620001f8565b5b828206905092915050565b600081519050919050565b600082825260208201905092915050565b60005b838110156200029b5780820151818401526020810190506200027e565b60008484015250505050565b6000601f19601f8301169050919050565b6000620002c5826200025f565b620002d181856200026a565b9350620002e38185602086016200027b565b620002ee81620002a7565b840191505092915050565b60006020820190508181036000830152620003158184620002b8565b905092915050565b611312806200032d6000396000f3fe6080604052600436106100555760003560e01c806312065fe01461005a578063449d46c0146100855780639a2cdc08146100a1578063a42a4663146100cc578063a9d42f7e14610109578063da70722f14610134575b600080fd5b34801561006657600080fd5b5061006f61015f565b60405161007c9190610834565b60405180910390f35b61009f600480360381019061009a91906109a9565b6101a1565b005b3480156100ad57600080fd5b506100b661053f565b6040516100c39190610a01565b60405180910390f35b3480156100d857600080fd5b506100f360048036038101906100ee9190610a7a565b610548565b6040516101009190610a01565b60405180910390f35b34801561011557600080fd5b5061011e610560565b60405161012b9190610c5a565b60405180910390f35b34801561014057600080fd5b506101496106bb565b6040516101569190610c97565b60405180910390f35b6101676107d2565b61016f6107d2565b478160200181815250503373ffffffffffffffffffffffffffffffffffffffff16318160000181815250508091505090565b606444426101af9190610ce1565b6101b99190610d44565b600381905550426001600460003373ffffffffffffffffffffffffffffffffffffffff1673ffffffffffffffffffffffffffffffffffffffff1681526020019081526020016000205461020c9190610ce1565b1061024c576040517f08c379a000000000000000000000000000000000000000000000000000000000815260040161024390610dd2565b60405180910390fd5b42600460003373ffffffffffffffffffffffffffffffffffffffff1673ffffffffffffffffffffffffffffffffffffffff1681526020019081526020016000208190555060016000808282546102a29190610ce1565b92505081905550600160405180608001604052803373ffffffffffffffffffffffffffffffffffffffff1681526020018381526020014281526020016000815250908060018154018082558091505060019003906000526020600020906004020160009091909190915060008201518160000160006101000a81548173ffffffffffffffffffffffffffffffffffffffff021916908373ffffffffffffffffffffffffffffffffffffffff16021790555060208201518160010190816103689190610ffe565b50604082015181600201556060820151816003015550503373ffffffffffffffffffffffffffffffffffffffff167f6728ef66814a55b797863bf8ffcd954b19cbca4ed4f0e6cf04c980705fd82c3682426040516103c7929190611109565b60405180910390a2600066038d7ea4c680009050478111156104275747811115610426576040517f08c379a000000000000000000000000000000000000000000000000000000000815260040161041d90611185565b60405180910390fd5b5b6032600354101561053b576000600260009054906101000a900473ffffffffffffffffffffffffffffffffffffffff1673ffffffffffffffffffffffffffffffffffffffff168260405161047a906111d6565b60006040518083038185875af1925050503d80600081146104b7576040519150601f19603f3d011682016040523d82523d6000602084013e6104bc565b606091505b505090508160018080805490506104d391906111eb565b815481106104e4576104e361121f565b5b90600052602060002090600402016003018190555080610539576040517f08c379a00000000000000000000000000000000000000000000000000000000081526004016105309061129a565b60405180910390fd5b505b5050565b60008054905090565b60046020528060005260406000206000915090505481565b60606001805480602002602001604051908101604052809291908181526020016000905b828210156106b257838290600052602060002090600402016040518060800160405290816000820160009054906101000a900473ffffffffffffffffffffffffffffffffffffffff1673ffffffffffffffffffffffffffffffffffffffff1673ffffffffffffffffffffffffffffffffffffffff16815260200160018201805461060d90610e21565b80601f016020809104026020016040519081016040528092919081815260200182805461063990610e21565b80156106865780601f1061065b57610100808354040283529160200191610686565b820191906000526020600020905b81548152906001019060200180831161066957829003601f168201915b505050505081526020016002820154815260200160038201548152505081526020019060010190610584565b50505050905090565b600042600a600460003373ffffffffffffffffffffffffffffffffffffffff1673ffffffffffffffffffffffffffffffffffffffff1681526020019081526020016000205461070a9190610ce1565b10905090565b6107a68160405160240161072491906112ba565b6040516020818303038152906040527f41304fac000000000000000000000000000000000000000000000000000000007bffffffffffffffffffffffffffffffffffffffffffffffffffffffff19166020820180517bffffffffffffffffffffffffffffffffffffffffffffffffffffffff83818316178352505050506107a9565b50565b60008151905060006a636f6e736f6c652e6c6f679050602083016000808483855afa5050505050565b604051806040016040528060008152602001600081525090565b6000819050919050565b6107ff816107ec565b82525050565b60408201600082015161081b60008501826107f6565b50602082015161082e60208501826107f6565b50505050565b60006040820190506108496000830184610805565b92915050565b6000604051905090565b600080fd5b600080fd5b600080fd5b600080fd5b6000601f19601f8301169050919050565b7f4e487b7100000000000000000000000000000000000000000000000000000000600052604160045260246000fd5b6108b68261086d565b810181811067ffffffffffffffff821117156108d5576108d461087e565b5b80604052505050565b60006108e861084f565b90506108f482826108ad565b919050565b600067ffffffffffffffff8211156109145761091361087e565b5b61091d8261086d565b9050602081019050919050565b82818337600083830152505050565b600061094c610947846108f9565b6108de565b90508281526020810184848401111561096857610967610868565b5b61097384828561092a565b509392505050565b600082601f8301126109905761098f610863565b5b81356109a0848260208601610939565b91505092915050565b6000602082840312156109bf576109be610859565b5b600082013567ffffffffffffffff8111156109dd576109dc61085e565b5b6109e98482850161097b565b91505092915050565b6109fb816107ec565b82525050565b6000602082019050610a1660008301846109f2565b92915050565b600073ffffffffffffffffffffffffffffffffffffffff82169050919050565b6000610a4782610a1c565b9050919050565b610a5781610a3c565b8114610a6257600080fd5b50565b600081359050610a7481610a4e565b92915050565b600060208284031215610a9057610a8f610859565b5b6000610a9e84828501610a65565b91505092915050565b600081519050919050565b600082825260208201905092915050565b6000819050602082019050919050565b610adc81610a3c565b82525050565b600081519050919050565b600082825260208201905092915050565b60005b83811015610b1c578082015181840152602081019050610b01565b60008484015250505050565b6000610b3382610ae2565b610b3d8185610aed565b9350610b4d818560208601610afe565b610b568161086d565b840191505092915050565b6000608083016000830151610b796000860182610ad3565b5060208301518482036020860152610b918282610b28565b9150506040830151610ba660408601826107f6565b506060830151610bb960608601826107f6565b508091505092915050565b6000610bd08383610b61565b905092915050565b6000602082019050919050565b6000610bf082610aa7565b610bfa8185610ab2565b935083602082028501610c0c85610ac3565b8060005b85811015610c485784840389528151610c298582610bc4565b9450610c3483610bd8565b925060208a01995050600181019050610c10565b50829750879550505050505092915050565b60006020820190508181036000830152610c748184610be5565b905092915050565b60008115159050919050565b610c9181610c7c565b82525050565b6000602082019050610cac6000830184610c88565b92915050565b7f4e487b7100000000000000000000000000000000000000000000000000000000600052601160045260246000fd5b6000610cec826107ec565b9150610cf7836107ec565b9250828201905080821115610d0f57610d0e610cb2565b5b92915050565b7f4e487b7100000000000000000000000000000000000000000000000000000000600052601260045260246000fd5b6000610d4f826107ec565b9150610d5a836107ec565b925082610d6a57610d69610d15565b5b828206905092915050565b600082825260208201905092915050565b7f5761697420313073656300000000000000000000000000000000000000000000600082015250565b6000610dbc600a83610d75565b9150610dc782610d86565b602082019050919050565b60006020820190508181036000830152610deb81610daf565b9050919050565b7f4e487b7100000000000000000000000000000000000000000000000000000000600052602260045260246000fd5b60006002820490506001821680610e3957607f821691505b602082108103610e4c57610e4b610df2565b5b50919050565b60008190508160005260206000209050919050565b60006020601f8301049050919050565b600082821b905092915050565b600060088302610eb47fffffffffffffffffffffffffffffffffffffffffffffffffffffffffffffffff82610e77565b610ebe8683610e77565b95508019841693508086168417925050509392505050565b6000819050919050565b6000610efb610ef6610ef1846107ec565b610ed6565b6107ec565b9050919050565b6000819050919050565b610f1583610ee0565b610f29610f2182610f02565b848454610e84565b825550505050565b600090565b610f3e610f31565b610f49818484610f0c565b505050565b5b81811015610f6d57610f62600082610f36565b600181019050610f4f565b5050565b601f821115610fb257610f8381610e52565b610f8c84610e67565b81016020851015610f9b578190505b610faf610fa785610e67565b830182610f4e565b50505b505050565b600082821c905092915050565b6000610fd560001984600802610fb7565b1980831691505092915050565b6000610fee8383610fc4565b9150826002028217905092915050565b61100782610ae2565b67ffffffffffffffff8111156110205761101f61087e565b5b61102a8254610e21565b611035828285610f71565b600060209050601f8311600181146110685760008415611056578287015190505b6110608582610fe2565b8655506110c8565b601f19841661107686610e52565b60005b8281101561109e57848901518255600182019150602085019450602081019050611079565b868310156110bb57848901516110b7601f891682610fc4565b8355505b6001600288020188555050505b505050505050565b60006110db82610ae2565b6110e58185610d75565b93506110f5818560208601610afe565b6110fe8161086d565b840191505092915050565b6000604082019050818103600083015261112381856110d0565b905061113260208301846109f2565b9392505050565b7f4e6f7420656e6f756768206d6f6e657900000000000000000000000000000000600082015250565b600061116f601083610d75565b915061117a82611139565b602082019050919050565b6000602082019050818103600083015261119e81611162565b9050919050565b600081905092915050565b50565b60006111c06000836111a5565b91506111cb826111b0565b600082019050919050565b60006111e1826111b3565b9150819050919050565b60006111f6826107ec565b9150611201836107ec565b925082820390508181111561121957611218610cb2565b5b92915050565b7f4e487b7100000000000000000000000000000000000000000000000000000000600052603260045260246000fd5b7f4661696c656420746f2073656e64206d6f6e6579000000000000000000000000600082015250565b6000611284601483610d75565b915061128f8261124e565b602082019050919050565b600060208201905081810360008301526112b381611277565b9050919050565b600060208201905081810360008301526112d481846110d0565b90509291505056fea2646970667358221220cc87f00bf9547a6c608a6911ab574b885817d8323e2cdd469252bf68fa0f7f4964736f6c63430008110033",
  "linkReferences": {},
  "deployedLinkReferences": {}
}